:020000040800F2
:100000008806002001010008131E0008F51B0008E7
:10001000111E0008FD040008BD23000800000000B8
:10002000000000000000000000000000191F000890
:100030003705000800000000151E00081B1F0008FF
:100040001B0100081B0100081B0100081B01000820
:100050001B0100081B0100081B0100081B01000810
:100060001B0100081B0100081B0100080105000816
:100070001B0100081B0100081B0100081B010008F0
:100080001B0100081B0100081B0100081B010008E0
:100090001B0100081B0100081B0100081B010008D0
:1000A0001B0100081B0100081B0100081B010008C0
:1000B0001B0100081B0100081B0100081B010008B0
:1000C0001B0100081B0100081B0100081B010008A0
:1000D0001B010008B12300081B0100081B010008D8
:1000E0001B0100081B0100081B010008DFF80CD0F1
:1000F00000F050F900480047492400088806002015
:100100000648804706480047FEE7FEE7FEE7FEE7B1
:10011000FEE7FEE7FEE7FEE7FEE7FEE7971F0008C3
:10012000ED000008D2B201E000F8012B491EFBD21D
:1001300070470022F6E710B513460A4604461946F2
:10014000FFF7F0FF204610BDF0B480EA0102D40FA3
:100150004200B2EB410F02D20246084611464A0065
:1001600042D0C30DDDB2C1F3C752AD1A202D35DA2E
:10017000C1F3160141F4000204B15242C5F1200658
:1001800002FA06F12A411044B3EBD05F23D0C4B188
:10019000012DA0EBC35009DCF0BC4FF0004202EA95
:1001A000C352DBB200F5000000F0C6B8400000F119
:1001B000807000EBC350A0F1807040EAD17049001C
:1001C00009E0490841EAC071A0EBC35000F5000006
:1001D000400800EBC350F0BC00F0A5B8614201221A
:1001E00002EB4101001BF6E7F0BC704781F00041D3
:1001F000AAE780F00040A7E780EA010210B502F00C
:100200000043400022D04A001FD0010E01EB1261D2
:10021000C0F35600C2F3560240F4000042F400025C
:10022000A0FB022000047F39140400D0401C50EAD7
:10023000124001D44000491EC2B20C0604EBD0109B
:10024000401C4008802A02D003E0002010BD20F0AE
:100250000100002900DA0020184310BD30B480EA04
:10026000010202F0004530F0004221F0004013D0BE
:1002700090B1C30DD40DC2F31601C0F31600E41AF9
:1002800041F4000140F400027D34914201D3641C2A
:1002900000E04900002C02DA30BC002070474FF427
:1002A00000000023914201D3891A034340084FEA1A
:1002B0004101F7D151B1914202D14FF0004105E027
:1002C00002D24FF0010101E06FF0010103EBC450D5
:1002D000284430BC00F027B8C10F80EAE070084421
:1002E000CA079623002100F027B896230022114662
:1002F00000F022B800F0004220F00040C10DC0F331
:10030000160040F400007F2901DA0020704796298A
:1003100003DCC1F19601C84001E096398840002A0B
:10032000F4D0404270470029A8BF7047401C4900E4
:1003300008BF20F00100704710B4B0FA80FC00FA4A
:100340000CF050EA010404BF10BC704749B1CCF175
:10035000200421FA04F411FA0CF118BF0121214301
:100360000843A3EB0C01CB1D4FEA00614FEA1020BC
:1003700042BF002010BC704700EBC350104400295E
:10038000A4BF10BC7047401C490008BF20F001000A
:1003900010BC7047064C074D06E0E06840F00103D2
:1003A00094E8070098471034AC42F6D3FFF7A2FE5A
:1003B000182600083826000870B5044600688168D1
:1003C000C943C90717D1816821F00101816000F09C
:1003D00003FD05460AE000BF00F0FEFC401B0228BA
:1003E00004D920688068C043C00706D020688068B0
:1003F000C043C007F0D0002070BDA06A40F01000DC
:10040000A062E06A40F00100E062012070BD10B51A
:100410000146406A826A12F0500F05D0006A026BF2
:10042000BDE8104008461047816A41F400718162BE
:1004300001688968C1F3424107290CD1017B51B998
:10044000816A21F480718162816AC90403D4816A5E
:1004500041F00101816200F0EFF810BD10B5406A73
:10046000816A41F040018162C16A41F00401C162C8
:1004700000F0E4F810BD10B5406A00F0DEF810BDE1
:10048000F8B500260446009600688168C943C9078C
:100490002DD0816841F0010181601648164900683D
:1004A000B0FBF1F000E0401E00900028FBD100F00E
:1004B00093FC054616E000BF00F08EFC401B0228AE
:1004C00010D920688068C043C0070BD0A06A40F0F4
:1004D0001000A062E06A40F00100E06284F824604D
:1004E0000120F8BD20688068C043C007E4D1002027
:1004F000F8BD00002C00002040420F00FEE7000085
:10050000014800F069BA00006400002030B590F89E
:1005100040500124AC40C56B6C6004686360436864
:10052000102B036803D099600068C26030BD9A60E8
:100530000068C16030BD704772B6FEE7F8B50024B0
:10054000009490F824202546012A12D0012280F838
:1005500024204A681F23072A0DD20668776B521E93
:1005600002EB820293409F430B6893401F437763E3
:1005700019E00220F8BD06680D2A0AD2376BD21F97
:1005800002EB820293409F430B6893401F43376303
:1005900009E0F76A0D3A02EB820293409F430B6831
:1005A00093401F43F7620A68072306680A2A0AD3A2
:1005B000F7680A3A02EB420293409F438B689340EC
:1005C0001F43F76008E0376902EB420293409F4304
:1005D0008B6893401F4337610A68102A01D0112AA3
:1005E00020D1124B02689A4217D193681B0219D48A
:1005F000936843F4000393600968102912D10C49F1
:100600000C4A0968B1FBF2F101EB8101490000E0FD
:10061000491E00910029FBD104E0816A41F02001CC
:100620008162012480F824502046F8BD0024014056
:100630002C00002040420F007047704770470000B8
:100640002DE9F0414FF0000704003D467ED0A06A3E
:10065000002628B9E66284F82460204600F07EF87F
:100660002046FFF7A9FEA16AC90600D420B1A06AFE
:1006700040F01000A06269E0A16A21F4885141F0C5
:100680000201A1626268E169237B0A4347EA4301F0
:100690000A43A1684FF48077B94209D0012907D0F5
:1006A0005FF0000194F814C0BCF1010F02D00AE021
:1006B0003946F7E7F3B1A36A43F02003A362E36A84
:1006C00043F00103E3622368D3F804C02CF4694CBF
:1006D0004CEA010CC3F804C021688B68DFF870C0D5
:1006E00003EA0C0313438B60A168B9420BD00129C4
:1006F00009D00CE0DFF85CC0A3690CEB43330B437B
:1007000043F40061DFE7218A0D05A5F58015216816
:10071000CB6A23F470032B43CB62216889680E4BAC
:100720001940914208D1E662A16A21F0020141F02C
:100730000101A162BDE8F081A06A20F0020040F052
:100740001000A062E06A40F00100E0620120F1E7E1
:10075000FDF7E1FF00E0FFFFFE0E1FFF70B586B062
:1007600000250646009501950295039500681A49F3
:1007700088422ED11949886940F4007088618869DF
:1007800000F400700490886940F004008861886972
:10079000694600F0040004900720009003200190B7
:1007A0000F4800F029FA104C0E48C4E900058020DB
:1007B000C4E9025040002061800060612020C4E94B
:1007C0000605204600F0B2F908B1FFF7B5FE346225
:1007D000666206B070BD00000024014000100240B7
:1007E0000008014008000240640000202DE9F047A5
:1007F000894604463B4900683B4F0E1D904688429F
:1008000001D0B84207D1306810F4702F03D0012511
:100810002846BDE8F08794F8240001280CD0012078
:1008200084F824002046FFF72BFE05004FF000005F
:1008300004D084F82400EBE70220EAE7A16A40F63E
:100840000162914341F48071A1622168B94218D1DB
:10085000326812F4702F14D0A16A41F48011A162A1
:100860003168490505D5A16A21F4005141F4805150
:10087000A162A16AC9040AD5E16A21F00601E16218
:1008800006E0A26A22F48012A2624968E9E7E06207
:1008900084F82400216A15488862216A1448C862D5
:1008A000216A1448086321686FF00200086020681C
:1008B000816841F480718160216843464A464C3129
:1008C000206A00F061F920688168C1F3424107297C
:1008D000816803D041F48011816099E741F4A0015F
:1008E000FAE7000000240140002801400F0400083E
:1008F000770400085D04000810B590F8211000226C
:10090000022905D00421816380F82020012010BD38
:1009100001680B6823F00E030B6001680B6823F07D
:1009200001030B6090F84030C46B012101FA03F31E
:10093000636080F8211080F82020104610BD000070
:1009400010B590F821100024022903D004218163FE
:1009500001243DE001680A6822F00E020A60016885
:100960000A6822F001020A601A4A0168914201D124
:10097000012121E0174A1432914201D110211BE0DC
:10098000144A2832914201D1891515E0114A3C32AE
:10099000914201D189140FE00E4A5032914202D1A6
:1009A0004FF4803108E00B4A6432914202D14FF497
:1009B000801101E04FF08071064A083A5160012130
:1009C00080F82110002180F82010416B01B1884788
:1009D000204610BD080002402DE9F05FC16B0C6895
:1009E00001680B68D0F840C0042202FA0CF2494DAD
:1009F000DFF824A1494E4A4FDFF828B1DFF828E19B
:100A000022422CD05A072AD50A68920603D40A68D3
:100A100022F004020A600168A94201D1042219E00F
:100A2000514501D1402215E0B14202D14FF480621C
:100A300010E0B94202D14FF480420BE0594502D197
:100A40004FF4802206E0714502D14FF4800201E0AC
:100A50004FF080622F4908394A60C16A3BE04FF08D
:100A6000020808FA0CF818EA040F4FF000094FF0DA
:100A7000010235D05FEA837832D50B689B0605D436
:100A80000B6823F00A030B6080F821200168A9425B
:100A900001D1022219E0514501D1202215E0B142D5
:100AA00002D14FF4007210E0B94202D14FF400526B
:100AB0000BE0594502D14FF4003206E0714502D1F6
:100AC0004FF4001201E04FF00072124908394A60F9
:100AD00080F82090816A00291AD0BDE8F05F0847AD
:100AE000082505FA0CF5254212D01B0710D50B6816
:100AF00023F00E030B6090F84010C36B02FA01F173
:100B00005960826380F8212080F82090016BE2E731
:100B1000BDE8F09F080002401C0002403000024087
:100B200044000240580002406C00024030B528B337
:100B300008C8134914221944B1FBF2F18900C163BA
:100B400010498163022141771A6843F6F0718A43A4
:100B5000D0E900142143D0E902452C432143046924
:100B600021434469214384692143114319600021D1
:100B70004163012242770177084630BD012030BD34
:100B8000F8FFFDBF0000024070B5044690F8200059
:100B9000002501280CD0012084F8200094F8216061
:100BA0000020012E06D084F820000225284670BDC2
:100BB000022070BD022684F82160A06320680668C8
:100BC00026F0010606602046FFF7A0FCE06A002838
:100BD0002068016802D041F00E0106E021F0040116
:100BE00001602068016841F00A0101602068016825
:100BF00041F001010160D9E72DE9F84FDFF8B89124
:100C0000002409F1040A0AF1040B23460F270BF113
:100C1000040EC9E00125A5402A40AA427DD1674EB5
:100C2000D1F804C0ACEB0608B44532D014DCBCF1FA
:100C3000030F3AD009DCBCF1000F2AD0BCF1010F40
:100C40001CD0BCF1020F31D11DE0BCF1110F17D047
:100C5000BCF1120F2AD119E0B8F5881F19D006DCB3
:100C6000B8F5803F15D0B8F5801F1FD111E0B8F559
:100C7000001F0ED0B8F5041F18D10AE0CB6815E0AC
:100C8000CB681B1D12E0CB6808330FE0CB680C3338
:100C90000CE08B682BB1012B4FF0080303D04561AA
:100CA00004E0042302E0056100E00023FF2A01D8EC
:100CB000064601E000F104064FEA840501D9A5F1DA
:100CC0002005D6F8008007FA05FC28EA0C0803FA8C
:100CD00005F548EA0508C6F800804D68ED0062D5C4
:100CE000374DAE6946F00106AE61AD6924F00306EA
:100CF00005F001050095334D06EB050CDCF80850B6
:100D0000A607360F07FA06F825EA0805DFF8B880C7
:100D1000404503D14FF0000817E044E0DFF8AC8015
:100D2000404502D14FF001080FE0DFF8A4804045B4
:100D300002D14FF0020808E0DFF89880404502D168
:100D40004FF0030801E04FF0040808FA06F848EAFB
:100D50000508CCF808804D68D9F80060ED034D46D1
:100D600001D5164300E096432E604D68DAF8006026
:100D7000AD03554601D5164300E096432E604D68FD
:100D8000DBF80060ED025D4601D5164300E09643B6
:100D90002E604D68DEF80060AD02754601D5164341
:100DA00000E096432E60641C0D682A46E5407FF4FF
:100DB00031AFBDE8F88F00000004014000001110C1
:100DC000001002400000014000080140000C0140FA
:100DD0000010014000140140014880687047000085
:100DE0002000002002488168027811448160704729
:100DF00020000020074810B5016841F01001016093
:100E0000032000F075F80F2000F006F800F024F839
:100E1000002010BD0020024070B50D4D04464FF477
:100E20007A712878B1FBF0F00A490968B1FBF0F05B
:100E300000F062FB48B9102C07D200222146501E58
:100E400000F036F800206C6070BD012070BD00001D
:100E5000200000202C0000200C4808B5816941F0DA
:100E600001018161816901F001010091C16941F0D5
:100E70008051C161C06900F0805000900448416811
:100E800021F0E06141F00071416008BD00100240B6
:100E900000000140002809DB00F01F020121914001
:100EA0004009800000F1E020C0F800117047000008
:100EB000F0B40E4B1B680C46C3F30223C3F10705C5
:100EC000042D00D90425191D072901D2002300E0B3
:100ED000DB1E012606FA05F1491E214099409E407D
:100EE000761E16403143F0BC01F072BA0CED00E002
:100EF000064900F0070208684FF6FF03184040EA71
:100F00000220034A10430860704700000CED00E027
:100F10000000FA052DE9F84305460078354CC00776
:100F200054D0E0690026C00008D4E06940F0805049
:100F3000E061E069012600F0805000902E480168D1
:100F4000C90512D40168804641F480710160FFF741
:100F500043FF074605E000BFFFF73EFFC01B6428C4
:100F600023D8D8F80000C005F6D5206A10F44070E8
:100F700021D0A98801F4407181421CD0206A1F4908
:100F8000012220F440700A6000220A602062C0073B
:100F900011D0FFF721FF074641F2883808E000BF73
:100FA000FFF71AFFC11B414502D90320BDE8F883B2
:100FB000206A8007F4D5206A696820F440700843ED
:100FC00020621EB1E06920F08050E061287880073F
:100FD00005D56068A96820F440400843606028781F
:100FE000C00605D56068E96820F4800008436060A9
:100FF0000020DBE700100240007000404004424245
:101000002DE9F0470F46050061D0434E306800F0EF
:101010000700B84209D2306820F00700384330603A
:10102000306800F00700B84251D128683B4C810776
:1010300012D5400703D5606840F4E060606028780E
:10104000000703D5606840F4605060606068A9687C
:1010500020F0F000084360602878C00728D0686856
:10106000012810D02168022810D0890700292EDA23
:10107000616821F0030101436160FFF7ADFE804626
:1010800041F288390DE021688903EFE78901EDE736
:10109000FFF7A2FEA0EB0801494502D90320BDE8F5
:1010A000F0876068696800F00C00B0EB810FEFD149
:1010B000306800F00700B8420BD9306820F0070014
:1010C00038433060306800F00700B84201D001209A
:1010D000E5E72878400705D56068E96820F4E06016
:1010E000084360602878000706D56068296920F405
:1010F000605040EAC100606000F038F86168084A5A
:10110000C1F30311515CC8400649086006480068F5
:10111000FFF782FE0020C2E70020024000100240DC
:10112000002600082C000020240000200448054967
:1011300000684968044AC1F30221515CC840704705
:101140002C00002000100240102600080448054929
:1011500000684968044AC1F3C221515CC840704725
:101160002C000020001002401026000812A185B0BB
:101170000FC98DE80F0014A0144A0068049051684C
:10118000134801F00C03042B10D0082B0ED1C1F32F
:101190008343C9031DF803000AD5516804AAC1F3AB
:1011A0004041515C0A4A5043B0FBF1F005B0704732
:1011B00008494843FAE70000020304050607080946
:1011C0000A0B0C0D0E0F101001020000001002405F
:1011D00000127A0000093D002DE9F84F040070D09C
:1011E0002078C04DC00749D06868C0F3810001284D
:1011F00007D06868C0F38100022809D16868C0037D
:1012000006D52868800339D560680028E7D035E026
:101210006068B0F5803F0BD010B1B0F5A02F11D0B1
:10122000286820F480302860286820F4802002E0BC
:10123000286840F480302860606890B1FFF7CCFDEA
:1012400006460AE0286840F480202860F0E700BFE6
:10125000FFF7C2FD801B642873D828688003F7D588
:101260000CE0FFF7B9FD064605E000BFFFF7B4FD4F
:10127000801B6428F0D828688003F7D420789A4E21
:1012800080074FF001094FF0000839D5686810F069
:101290000C0F07D06868C0F38100022809D1686884
:1012A000C00306D42868800714D52069012808D116
:1012B00010E02069B0B1C6F80090FFF78DFD074639
:1012C00005E00AE1FFF788FDC01B0228C4D82868A2
:1012D0008007F7D52868616920F0F80040EAC1006E
:1012E00028600DE0C6F80080FFF776FD074604E0B1
:1012F000FFF772FDC01B022823D828688007F7D4A7
:10130000207800072CD57948A169D9B1C0F80090A0
:10131000FFF762FD074604E0FFF75EFDC01B0228F1
:101320000FD8686A8007F7D571484FF4FA51006802
:10133000B0FBF1F0009000BF0098411E0091FAD27E
:101340000EE080E0C0F80080FFF746FD074604E0AD
:10135000FFF742FDC01B022875D8686A8007F7D4E2
:101360002078400760D5E8690027C00008D4E86904
:1013700040F08050E861E869012700F0805000905B
:101380005C480168C90513D40168834641F4807143
:101390000160FFF721FD824606E000BFFFF71CFD5C
:1013A000A0EB0A0064284ED8DBF80000C005F5D594
:1013B000E06801280AD008B1052813D0286A20F077
:1013C00001002862286A20F0040002E0286A40F048
:1013D00001002862E06841F2883B98B1FFF7FCFC0D
:1013E00082460BE0286A40F004002862EEE700BF66
:1013F000FFF7F2FCA0EB0A0159455AD8286A80078A
:10140000F6D50CE0FFF7E8FC824605E0FFF7E4FCC8
:10141000A0EB0A0159454CD8286A8007F6D41FB1C1
:10142000E86920F08050E861E06988B36968C1F339
:101430008101022944D00228C6F8608004D0FFF759
:10144000CBFC044638E034E0FFF7C6FC074604E076
:10145000FFF7C2FCC01B02282BD828688001F7D4F4
:10146000206AB0F5803F05D16868A16820F400309B
:1014700008436860D4E908010843696821F47411DD
:1014800008436860C6F86090FFF7A6FC044606E0D3
:1014900025E000BFFFF7A0FC001B022809D8286840
:1014A0008001F7D51BE000BFFFF796FC001B022868
:1014B00002D90320BDE8F88F28688001F4D40EE03B
:1014C0000128F7D06868226A00F48031914204D183
:1014D000616A00F47010884201D00120EAE7002020
:1014E000E8E700000010024000004242800442424F
:1014F0002C0000200070004010B5401EB0F1807F2D
:1015000001D3012010BD4FF0E02460610F2160176E
:1015100000F05EFF0020A06107202061002010BDC8
:1015200010B590F83C20012A22D0012280F83C20FE
:10153000CA688C6822F4407222434C6822F48062AC
:1015400022430C6822F4006222430C6922F4805288
:1015500022434C6922F400522243C969002322F439
:1015600080420A4301684A6480F83C30002010BD84
:10157000022010BD70B590F83C20012A26D001242D
:1015800080F83C40022280F83D2003685A689D683C
:1015900022F070060A6832435A600D4B02689A4284
:1015A00008D0B2F1804F05D00A4B9A4202D00A4BC4
:1015B0009A4204D1496825F080031943916080F86C
:1015C0003D40002180F83C10084670BD022070BDEF
:1015D000002C0140000400400008004000B585B028
:1015E0000021009101910291039100680B4988420A
:1015F00012D10B48816941F004018161806969461B
:1016000000F0040004904FF47060009002200190FC
:1016100003900448FFF7F0FA05B000BD002C01402C
:10162000001002400008014070B5044690F83C00EC
:101630000D4601280AD0012084F83C0042B1042A5A
:1016400018D0082A2AD00C2A4DD139E0022070BDCA
:10165000206800F0E5FC2068816941F008018161A3
:101660002068816921F004018161206881692A690B
:10167000114311E0206800F0FBFC2068816941F40F
:10168000006181612068816921F480618161206845
:1016900081692A6941EA0221816124E0206800F021
:1016A00013FD2068C16941F00801C1612068C1696A
:1016B00021F00401C1612068C1692A69114311E068
:1016C000206800F02DFD2068C16941F40061C1610E
:1016D0002068C16921F48061C1612068C1692A69FB
:1016E00041EA0221C161002084F83C0070BD10B5C0
:1016F000040003D094F83D0010B107E0012010BDB4
:10170000002084F83C00204600F01EF8022084F8F7
:101710003D00211D206800F03FFC012084F84600B8
:1017200084F83E0084F83F0084F8400084F84100CB
:1017300084F8420084F8430084F8440084F84500AB
:1017400084F83D00002010BD08B5006806498842B5
:1017500008D10648816941F400618161806900F423
:101760000060009008BD0000002C01400010024005
:1017700010B50446022249B104290ED0082913D01D
:1017800094F84100012816D0012010BD94F83E00C5
:101790000128F9D184F83E200FE094F83F00012899
:1017A000F2D184F83F2008E094F840000128EBD102
:1017B00084F8402001E084F841200122206800F0F4
:1017C00021FC0F492068884203D1426C42F4004258
:1017D00042642068884208D0B0F1804F05D00949A2
:1017E000884202D00849884204D1816801F007018B
:1017F000062903D0016841F001010160002010BDFD
:10180000002C014000040040000800407047704771
:10181000F8B5026804461068D168536910F00F0FDC
:101820004FF0000553D003F0010601F490773743E1
:101830005FD0C20705D0CA0503D5226C42F0010271
:101840002264420705D5DA0703D0226C42F0020277
:101850002264820705D5DA0703D0226C42F0040225
:101860002264020707D501F02002324303D0226C24
:1018700042F008022264226C002A34D0800604D58B
:10188000880602D5204600F08DFC20684069216C56
:10189000C0F38010090700D430B3204600F06AFC82
:1018A0002068416949061BD5416921F04001416129
:1018B000A06BA8B158494163A06BFFF741F800281D
:1018C00011D0A06B416B01B0BDE8F0400847830622
:1018D0000FD58B060DD52046BDE8F84000F062BC60
:1018E0002046FFF794FFF8BD2046FFF790FF2564E0
:1018F000F8BD266B2023012E52D1C60650D5CE0648
:101900004ED5106850680090506940062AD5A16BEA
:10191000086840680004000CEAD0A68D8642E7D92A
:10192000E0858869202818D0D06820F48070D060C5
:101930002068416921F0010141612068416921F07D
:101940004001416184F83E3025632068C16821F080
:101950001001C160A06BFEF7CFFFA08DE18D401A92
:1019600081B219E0A08DE18D401A81B2E08D00288E
:10197000BED00029BCD0D06820F49070D060206820
:10198000426922F00102426184F83E3025632068FA
:10199000C26822F01002C2602046FFF737FFF8BD90
:1019A00005062BD50D0629D594F83D002128F6D142
:1019B000A068B0F5805F01D12069B0B1206A411CF8
:1019C0002162216800784860E08C401E0004000C11
:1019D000E084E4D12068C16821F08001C160206802
:1019E000C16841F04001C160F8BD206A0088C0F3C1
:1019F00008005060206A801C2062E5E74006F3D5AD
:101A00004806F1D5D168204621F04001D16084F824
:101A10003D3000F0EEF8F8BD6521000870B5040017
:101A200004D094F83D00002510B106E0012070BDFF
:101A300084F83C50204600F023F8242084F83D0030
:101A40002068C16821F40051C160204600F006FC06
:101A50002068016921F4904101612068416921F009
:101A60002A0141612068C16841F40051C1602564C8
:101A7000202084F83D0084F83E00002070BD000066
:101A800030B585B00024009401940294039400685A
:101A90001B49884232D11B48816941F480418161F0
:101AA000816901F480410491816941F008018161FB
:101AB0008069154D00F0080004904020009002203D
:101AC00001900320039069462846FFF795F880208F
:101AD000CDE90004694628460294FFF78DF80B48CB
:101AE000416841F0E06141F004014160002211468B
:101AF0002520FFF7DDF92520FFF7CCF905B030BD33
:101B00000038014000100240000C0140000001407C
:101B100090F83E30202B0ED159B152B190F83C30A4
:101B2000012B08D0012380F83C300023036300F030
:101B3000F1BB012070470220704700F06DB9000032
:101B40002DE9F843044690F83D001F4616460D4621
:101B500020284CD1C5B1BEB194F83C00012846D034
:101B6000012084F83C004FF00008C4F84080212098
:101B700084F83D00FFF730F9A6848146E684A0682A
:101B8000B0F5805F03D004E00120BDE8F883206950
:101B900028B12E465FF0000584F83C800EE0002658
:101BA000FAE78021204600F0D0FBA0B9AEB116F8CC
:101BB000010B21684860E08C401EE084E08C4B46BD
:101BC0004FF0000200970028EBD14FF04001204673
:101BD00000F0BBFB30B10320D7E735F8020BC0F3B0
:101BE0000800E6E7202084F83D000020CDE7022031
:101BF000CBE77047FEE70000FEB500241D480094C7
:101C000001941B49029401608915816001250573C7
:101C10000475032606614FF460214460C161FEF73C
:101C20000FFD08B1FEF788FC04200094CDE90150B7
:101C300069461048FEF782FC08B1FEF77DFC0224DD
:101C4000CDE9005469460B48FEF778FC08B1FEF771
:101C500073FCCDE9004669460648FEF76FFC08B103
:101C6000FEF76AFC032204490248FEF7BFFDFEBDF1
:101C7000002401403400002008000020094808B575
:101C8000416941F0010141614069002200F0010019
:101C9000009011460B20FFF70BF9BDE808400B2020
:101CA000FFF7F8B8001002400D4808B5816941F00F
:101CB00020018161816901F020010091816941F079
:101CC00004018161816901F004010091816941F0A1
:101CD00008018161806900F00800009008BD0000E3
:101CE0000010024010B592B000240F941C216846E9
:101CF0001094FEF71EFA202107A8FEF71AFA3548BD
:101D0000334901600821C0E901144FF4FA71C0E9B8
:101D100003148021C0E90541FFF7E9FC08B1FEF793
:101D20000BFC0F940FA92B481094FFF723FC08B16C
:101D3000FEF702FC6020CDE90004029403940494B1
:101D400005940022694623480694FFF76DFC08B10C
:101D5000FEF7F2FB042269461E48FFF765FC08B156
:101D6000FEF7EAFB082269461A48FFF75DFC08B156
:101D7000FEF7E2FB0C2269461648FFF755FC08B156
:101D8000FEF7DAFB0794089409944FF400500A9484
:101D9000CDE90B4007A90F480E94FFF7C1FB08B12E
:101DA000FEF7CAFB0B48FFF719FC00210948FFF7B3
:101DB000DFFC04210748FFF7DBFC08210548FFF79B
:101DC000D7FC0C210348FFF7D3FC12B010BD000074
:101DD000002C0140A80000200C4810B50A49016001
:101DE0004FF4E1314160002181600C22C160C0E903
:101DF00004128161C161FFF711FE002803D0BDE824
:101E00001040FEF799BB10BD00380140F0000020E3
:101E1000FEE7FEE7704700002DE9F047006837490C
:101E2000884269D13648374C054601786888215484
:101E3000401C68800A2958D12078E178303800EBBE
:101E4000C00202EB001001EB8000A1782E4E01EBE6
:101E5000810106EB41010844FEF73EFADFF8AC9041
:101E60004946FEF7FBF9804668606079217A303890
:101E700000EBC00202EB001001EB8000E17901EB06
:101E8000810106EB41010844FEF726FA4946FEF7B8
:101E9000E5F90746A860A07A617B303800EBC00204
:101EA00002EB001001EB8000217B01EB810106EBCE
:101EB00041010844FEF710FA4946FEF7CFF904F550
:101EC0008071E86001F12802C1F81C80C2F81C8012
:101ED0000F6217624862506200206880FF2120462E
:101EE000FEF727F90AA000F06BFABDE8F0470122DF
:101EF00003490848FFF70CBEBDE8F08700380140F1
:101F00001000002034010020F0FDFFFF0000C84257
:101F10006F6B0000F00000207047FEF763BF30B524
:101F200093B028216846FEF704F914210AA8FEF7A9
:101F300000F9002501200F951095119501041295C7
:101F40008DE8230004904FF4E010CDE9081002243E
:101F500007946846FFF740F908B172B6FEE70AA990
:101F60000F2081E831004FF48060CDE90D0502219A
:101F70000AA8FFF745F808B172B6FEE74FF4004033
:101F800011900F940FA8FEF7C5FF002801D072B67C
:101F9000FEE713B030BD7047F0B50268164B174C22
:101FA000174D4FF08047984205D0B84203D0A04269
:101FB00001D0A84203D122F070064A683243984209
:101FC00005D0B84203D0A04201D0A84203D122F4E8
:101FD0004074CA6822434C6922F0800222430260A6
:101FE0008A68C2620A688262984201D10969016303
:101FF00001214161F0BD0000002C014000040040BF
:102000000008004010B501F01F030121046A994047
:102010008C430462016A9A401143016210BD0000C2
:1020200030B5026A22F001020262026A43688469E2
:1020300024F073050C682C4322F002058A682A43B9
:102040000A4DA8420BD122F00805CA6823F4407358
:102050002A434D6922F004021D438B692B434360E0
:10206000846149684163026230BD0000002C014078
:1020700030B5026A22F010020262026A4368846983
:102080000D6824F4E64444EA05248D6822F0200219
:1020900042EA05120B4DA8420ED1CD6822F0800213
:1020A00042EA05124D6923F4406343EA85038D69D2
:1020B00022F0400243EA85034360846149688163FA
:1020C000026230BD002C014030B5026A22F48072F9
:1020D0000262036A4268C46923F4007324F0730542
:1020E0000C682C438D6843EA05230C4DA8420ED1A1
:1020F000CD6823F4006343EA05234D6922F440527E
:1021000042EA05128D6923F4806342EA05124260B7
:10211000C4614968C163036230BD0000002C014006
:1021200030B5026A22F480520262046A4268C369CE
:102130000D6823F4E64343EA05238D6824F4005434
:1021400044EA0534064DA84204D14D6922F4804288
:1021500042EA85124260C36149680164046230BD8D
:10216000002C014010B5406A0021C185C184FFF7F1
:102170004EFB10BD0168CA6822F49072CA60016803
:102180004A6922F001024A61016B012904D1016808
:10219000CA6822F01002CA60202180F83E10002197
:1021A0000163704708B590F83E10222901D0022043
:1021B00008BD82684FF480539A4201D1016921B170
:1021C000816A9A421BD04AB10AE00268816A526869
:1021D000C2F308020A80816A891C08E0026972B1B0
:1021E0000268526802F07F020A70816A491C8162AB
:1021F000C18D491E0904090CC18503D019E002688C
:102200005268F1E70168CA6822F02002CA600168DA
:10221000CA6822F48072CA6001684A6922F0010229
:102220004A61202180F83E10016B012903D0FFF79D
:1022300084FC002008BD002101630168CA6822F007
:102240001002CA6001680A68D20602D50A684968A5
:102250000091818DFFF7DAFAEBE7000070B50446D4
:1022600000680169E26821F440511143016121696C
:10227000A0680843616908432168CA6841F20C6399
:102280009A430243CA6020684169A26921F44071FF
:10229000114341611E492068884202D1FEF756FF72
:1022A00001E0FEF743FF00EBC00101EB00126068A4
:1022B00064218000B2FBF0F3B3FBF1F36FF018067A
:1022C0007343B2FBF0F5B2FBF0F605EB8305322366
:1022D00003EB0515B5FBF1F5B6FBF1F605F0F005DE
:1022E00005EB0615B2FBF0F6B2FBF0F0B0FBF1F037
:1022F0006FF01802504306EB800003EB0010B0FBB8
:10230000F1F0216800F00F002844886070BD0000E3
:102310000038014081628285C28500210164222249
:1023200080F83E2080F83C100168CA6842F4807250
:10233000CA6001684A6942F001024A610068C168E6
:1023400041F02001C160002070472DE9F04198461E
:1023500017460E460446069D1DE0681C1BD02DB195
:10236000FEF73AFDA0EB0800A84214D92068C16826
:1023700021F4D071C1602068416921F001014161FF
:10238000202084F83D0084F83E00002084F83C00C2
:102390000320BDE8F0812068006836EA000004D020
:1023A0000020B842D9D00020F3E70120F9E700006F
:1023B0000148FFF72DBA0000F0000020FEE7000002
:1023C000014A024900F023B83124000830000020FF
:1023D0000907090E002804DB00F1E02080F8001452
:1023E000704700F00F0000F1E02080F8141D7047E6
:1023F00002E008C8121F08C1002AFAD170477047CE
:10240000002001E001C1121F002AFBD170472DE915
:10241000F04116460F460446002503E03946B04712
:10242000641C6D1C20780028F8D12846BDE8F08196
:1024300013B56423042269460248FFF781FB009824
:102440001CBD0000F0000020FEF7D4FCFFF767FD84
:10245000FFF72AFCFFF712FCFFF7CEFBFFF742FC69
:10246000FFF7BAFC00F028F801220D490D48FFF7EC
:102470004FFB0D4D0D4C2888FDF737FF01460C48EA
:1024800000F058F820606888FDF72FFF01460948E2
:1024900000F083F801466060206800F02FF8EAE75A
:1024A00010000020F00000200800002000000020A4
:1024B0005C020020340200200D4900204FF07E52C3
:1024C000486088600860C86108624862C1E9042009
:1024D000084B8B61C8602839486088600860C86113
:1024E00008624862C1E90420C860034888617047F7
:1024F0005C02002000C0EF440060FB4430B50028BF
:1025000002DB0246002301E00022C343002902DB74
:102510000846002401E00020CC4305490D686A63A9
:102520000A6893630A68D0630868046430BD0000D9
:10253000A80000202DE9F04104468069FDF756FE11
:102540002060276905463946FDF756FE6168FDF7AC
:10255000FBFD606006462846E168FDF747FE394608
:10256000FDF77CFE0146A060606AFDF745FE074668
:102570003146206AFDF740FE06462946E069FDF730
:102580003BFE3146FDF7E0FD3946FDF7DDFDE56038
:102590006061BDE8F041FDF7ADBE2DE9F0410446B4
:1025A0008069FDF723FE2060276905463946FDF75F
:1025B00023FE6168FDF7C8FD606006462846E168B5
:1025C000FDF714FE3946FDF749FE0146A060606A3A
:1025D000FDF712FE07463146206AFDF70DFE06465E
:1025E0002946E069FDF708FE3146FDF7ADFD3946A5
:1025F000FDF7AAFDE5606061BDE8F041FDF77ABE38
:1026000000000000000000000102030406070809A2
:10261000000000000102030438260008000000202A
:1026200034000000F02300086C260008340000206D
:102630005406000000240008000000000000000014
:10264000000000000000000000000000000000008A
:102650000000000000000000010000001000000069
:0C266000000000000024F4000000000056
:04000005080000ED02
:00000001FF
